:103100007079002045320100C93201001D320100F2
:1031100000000000000000000000000000000000AF
:10312000000000000000000000000000D13201009B
:103130000000000000000000D1320100D132010087
:10314000D1320100D1320100D1320100D13201006F
:10315000DD420000D1320100D1320100911901009D
:10316000A5190100B9190100CD190100E1190100EB
:10317000F5190100C9570000DD570000F1570000A4
:1031800005580000195800002D5800004158000053
:10319000555800005D3C0000D1320100D1320100E1
:1031A000D132010010B5064C2378002B07D1054B16
:1031B000002B02D0044800E000BF0123237010BDA3
:1031C00074040020000000005C75010008B5084B85
:1031D000002B03D00748084900E000BF07480368F8
:1031E000002B03D0064B002B00D0984708BDC046EB
:1031F000000000005C750100780400205C7501008F
:103200000000000080B582B000AF78607B680022CB
:103210001A70BD4602B080BD80B582B000AF021CFE
:103220003960FB1D1A70FB1D1B78012B0AD0022B85
:103230000FD0002B14D10E4B0D4A91693A680A4306
:103240009A610FE00A4B0A4AD1693A680A43DA6187
:1032500008E0074B064A116A3A680A431A6201E01D
:10326000172300E00023181CBD4602B080BDC046F5
:103270000004004080B582B000AF78607B68802297
:103280001A707B6800225A707B6801229A707B68F2
:103290000022DA70BD4602B080BDC04680B582B063
:1032A00000AF021CFB1D1A70FB1D1B78002B02D007
:1032B000012B07D00DE0084B074A126C02210A438C
:1032C0001A6406E0044B044A126C04210A431A648F
:1032D000C046BD4602B080BD0008004080B584B045
:1032E00000AF78607B681B68FB60FB685B7EDBB2CD
:1032F000DBB25BB2002B01DA012300E00023181CD3
:10330000BD4604B080BDC04680B582B000AF7860D5
:103310007B6800221A707B6800225A707B6800224A
:103320005A807B6800221A717B6800221A767B68BB
:1033300000221A627B680022DA617B6800229A60B0
:103340007B6800221A737B68C0225201DA817B6895
:1033500000221A747B6800225A747B6800229A74D7
:103360007B680022DA747B6800221A757A682A2347
:103370000021D1547B6800225A757B6800229A751F
:103380007A6824230021D1547B680022DA847B6888
:1033900000221A857B680022DA757A682B230021C7
:1033A000D1547A682C230021D154BD4602B080BD8F
:1033B00080B598B000AF78603A1C0C32154B111CE8
:1033C0001A1C5023081C111C1A1C134B9847134B32
:1033D000FB657B68132B1AD83B1C0C337A68920070
:1033E000D358FB653B1C0833181C0D4B98473B1CFE
:1033F000083300229A703B1C083301221A70FB6DBF
:10340000DAB23B1C0833101C191C064B9847BD460A
:1034100018B080BD346F0100FD6C0100FFFF00009B
:1034200075320000C5310100B0B588B000AF7860DA
:1034300039603B1C1F3300221A701023BB613B1CF8
:10344000173300221A70CC4B1A68F0231B0213406A
:103450001A0B3B1C13331A707B681B68FB603B1C08
:103460000833181CC54B98473B681A783B1C083337
:103470001A703B1C08331720191CC14B98471720A2
:10348000C04B98473A682C23D35C002B40D03B1CA0
:10349000163339682B228A5C1A703B68197B3B1CF7
:1034A00015333A1C163212788A181A703A682C238F
:1034B000D15C3B1C0B333A1C153212788A181A70F7
:1034C00018E03B1C16331A780F231A403B681B7B0D
:1034D000D318181CAC4B98473B1C15331A783B1C6F
:1034E000153301321A703B1C16331A783B1C163305
:1034F00001321A703A1C15323B1C0B3312781B78C0
:103500009A42DED33B68DB89181C9F4B984709E041
:103510003B681B7B181C9C4B98473B68DB89181C3D
:10352000994B98473B685B7D9B00DAB2FB681A7049
:103530003B689B7DDB01DAB23B685B78DBB213430F
:10354000DBB2DAB2FB685A703B681B79342B5AD86D
:103550009A008E4BD3181B689F463B1C1F333A685A
:10356000527C1A703B1C17333A68127C1A70102375
:10357000BB614AE03B1C1F3301221A703B1C17330E
:1035800002221A701023BB613FE03B1C1F33022252
:103590001A703B1C173304221A701023BB6134E0ED
:1035A0003B1C13331B78022B04D83B1C1F33032214
:1035B0001A7003E03B1C1F3301221A703B1C1733A7
:1035C00006221A701023BB611FE03B1C13331B78CB
:1035D000022B04D83B1C1F3304221A7003E03B1C4F
:1035E0001F3300221A703B1C173308221A70102355
:1035F000BB610AE03023BB6107E02023BB6104E02C
:103600000023BB6101E01723A9E13B1C1F331B789A
:103610001B01DAB270231340DAB23B1C17331B785C
:103620001343DAB2FB689A703B68DB7D3F2B01D90C
:10363000172394E13B68DA7DFB68DA70C0467B684B
:10364000181C534B9847031C002BF8D13B685A8831
:10365000BB699BB213439AB239682423CB5CDB006D
:103660009BB213439AB23B681B7D9B009BB21343F2
:103670009AB23B689B7CDB189BB213439AB23B68BF
:10368000DB7C13439AB2FB689A803B681B7E002B5D
:1036900000D1BFE0BB69102B00D194E002D8002B11
:1036A0004FD0B7E0202B25D0302B00D0B2E03B68C4
:1036B000DB7C002B13D03B68DB697F2B0DDC3B6888
:1036C000DB691A1C803208DB3B681B6A7F2B04DC39
:1036D0003B681B6A1A1C803201DA17233FE13B6802
:1036E000DB69FF2B03DC3B681B6AFF2B01DD172323
:1036F00035E18FE03B68DB7C002B15D03B68DA6955
:10370000244B9A420EDC3B68DA69234B9A4209DB70
:103710003B681A6A1F4B9A4204DC3B681A6A1F4BCB
:103720009A4201DB17231AE13B68DA691C4B9A4283
:1037300004DC3B681A6A1A4B9A4201DD17230EE13A
:1037400068E03B68DB7C002B30D03B68DA69154BC6
:103750009A420EDC3B68DA69134B9A4209DB3B68FC
:103760001A6A104B9A4204DC3B681A6A0E4B9A4262
:103770001CDA1723F3E0C046182000410532000090
:10378000A52E0100E52E0100B1330000846F010079
:10379000DD320000FF01000000FEFFFF01FEFFFF21
:1037A000FF030000FF07000000F8FFFF3B68DA6935
:1037B0006D4B9A4204DC3B681A6A6B4B9A4201DDFE
:1037C0001723CCE026E03B68DB7C002B15D03B6860
:1037D000DA69664B9A420EDC3B68DA69644B9A42BE
:1037E00009DB3B681A6A614B9A4204DC3B681A6A3F
:1037F0005F4B9A4201DA1723B1E03B68DA695D4B0F
:103800009A4204DC3B681A6A5A4B9A4201DD17233C
:10381000A5E0C046C0467B68181C574B9847031C60
:10382000002BF8D13B681A7EFB681A72C0467B6891
:10383000181C514B9847031C002BF8D13B68DB69DF
:103840009AB2FB689A83C0467B68181C4A4B98471B
:10385000031C002BF8D13B681B6A9AB2FB681A84E0
:103860003B1C143339682C228A5C1A703B1C1433BD
:103870001B78002B06D03B1C14331A783B1C1433E6
:10388000013A1A703B1C14331B780F2B04D83A688A
:103890002B23D35C0F2B01D9172360E0C0467B6834
:1038A000181C354B9847031C002BF8D13B689A68CD
:1038B00039682B23CB5C1B051A433B1C14331B7844
:1038C0001B041A433B68DB891A433B681B7B1A4382
:1038D000FB681A613A682A23D25CFB681A75FB6898
:1038E0000F229A753A682423D35C002B1DD03B68C5
:1038F000DA8C1D4B9A4201D9172330E03B68DA8CF1
:10390000FB689A843B681B8D1AB21C4B9A4205DCFB
:103910003B681B8D1AB21A4B9A4201DA17231EE03C
:103920003B681B8D9AB2FB68DA84164B1B68DB0878
:103930009BB21B029AB2E023DB00134099B2124BF8
:103940001A685B685801D40E0443DD0EA2B2FF234F
:1039500013409BB20B439AB2FB681A850023181CD4
:10396000BD4608B0B0BDC046FF0F0000FF7F00009D
:103970000080FFFFFFFF0000DD320000FF070000B6
:1039800000F8FFFF246080002060800080B586B0D2
:1039900000AFF860B9607A60FB68BA681A6080238B
:1039A0005B020220191C324B9847BB681B78DBB2C4
:1039B0001A1C0123134001D0052355E0BB681B7876
:1039C000DBB21A1C0223134001D01C234CE07B689D
:1039D0005A78FB681A71FB681B79002B02D1012011
:1039E000244B98473B1C173300221A700EE03B1CF7
:1039F00017331A78FB68023292000021D1503B1C29
:103A000017331A783B1C173301321A703B1C1733DB
:103A10001B78022BEBD9FB6800229A76FB68002208
:103A2000DA76FB6800221A83FB6800221A77124BB1
:103A3000FA681A607A682A23D35C002B0AD17B6863
:103A40001B7D01225340DBB2002B03D0FB68012217
:103A50005A7702E0FB6800225A77FA687B68101CEC
:103A6000191C064B9847031C181CBD4606B080BDA8
:103A7000193200009D32000030050020293400007A
:103A800080B584B000AF78607B681B68FB60FB6822
:103A90005B7EDBB2DBB25BB2002B01DA012300E01C
:103AA0000023181CBD4604B080BDC04680B584B05C
:103AB00000AF78607B681B68FB60C0467B68181CA1
:103AC0000B4B9847031C002BF8D1FB681B7BDBB228
:103AD00002221343DAB2FB681A73C0467B68181CD3
:103AE000034B9847031C002BF8D1BD4604B080BDA2
:103AF000813A000080B584B000AF78600A1CFB1CDE
:103B00001A707B681B68FB60FB68FA1C1278DA7518
:103B1000BD4604B080BDC04680B584B000AF7860BB
:103B20000A1CFB1C1A707B681B68FB60FB68FA1C94
:103B300012789A75BD4604B080BDC04680B584B089
:103B400000AF021CFB1D1A70FB1D1A78404B92003F
:103B5000D358FB60FB681B681B7EDBB2BB60BA6896
:103B6000012313403ED0FB68DB7E1A1C0123134067
:103B700038D0FB689B7E1A1C0123134032D0FB68AF
:103B80001B6801221A76FB685B69991CFA6851610F
:103B9000FA681268528B92B21A80FB681B8B9BB238
:103BA000013B9BB2FA68191C1183002B08D0FB68FB
:103BB0005B7F002B16D0FB68181C264B984711E042
:103BC000FB681B7FDBB2052B0CD1FB6800221A7748
:103BD000FB68181C0121204B9847FB689B68FA681A
:103BE000101C9847BA680423134014D0FB681B6864
:103BF00004221A76FB68DB7E1A1C022313400AD0CB
:103C0000FB689B7E1A1C0223134004D0FB68DB6810
:103C1000FA68101C9847BA680223134014D0FB6856
:103C20001B6802221A76FB68DB7E1A1C04231340F1
:103C30000AD0FB689B7E1A1C0423134004D0FB6847
:103C40001B69FA68101C9847BD4604B080BDC04689
:103C500030050020AD3A0000193B000080B500AFF0
:103C60000020024B9847BD4680BDC0463D3B00004A
:103C700080B584B000AFF860B960FB1D1A70FB1D01
:103C80001A78FB6802329200B968D150FB689B7EBB
:103C9000DAB2FB1D1B780121081C9840031CDBB223
:103CA0001343DBB2DAB2FB689A76BD4604B080BD3E
:103CB00080B584B000AFF860B960BB1D1A80FB68A6
:103CC0001B8B9BB2002B04D1FB681B7FDBB2052B47
:103CD00001D1052317E0FB6805221A77FB68BA1D9E
:103CE00012881A83FB68BA685A61FB68181C0121A4
:103CF000074B9847FB685B7F002B03D0FB68181CC1
:103D0000044B98470023181CBD4604B080BDC04634
:103D1000F53A0000AD3A000080B584B000AF021C57
:103D20003960FB1D1A700023FB602B4B5A6B02237A
:103D3000134005D0284B284A526B02218A435A630C
:103D40003B681B881A1C3B681B791A433B685B88DD
:103D50001343FA681343FB603B685A8880235B0077
:103D60009A4204D1FB68802292001343FB603B68B7
:103D70009B79002B03D0FB6804221343FB603B6854
:103D8000DB79002B03D0FB6840221343FB60FB1D53
:103D90001B78002B1AD13B685B793F2B01D9172385
:103DA00015E00D4B3A6852791204111CFC22920363
:103DB0001140FA680A435A63C046074BDA68802309
:103DC0001B011340F9D0C046002300E01723181C44
:103DD000BD4604B080BDC0460008004080B582B03A
:103DE00000AF78607B6880221A707B6800225A706E
:103DF0007B6801229A707B680022DA70BD4602B0AF
:103E000080BDC04680B584B000AF021CFB1D1A7097
:103E10003B1C0F33FA1D127852091A703B1C0F33EA
:103E20001B78002B0BD1084BBB603B1C0F331B785E
:103E30009B001022D219D318083B1B6800E0002316
:103E4000181CBD4604B080BD0018004080B582B08B
:103E500000AF0F4B3B6000237B6011E07B689B0051
:103E60000822D219D318083B1B685B78DBB2DBB29F
:103E70005BB2002B01DA012306E07B6801337B6033
:103E80007B68002BEAD00023181CBD4602B080BD21
:103E90000018004080B582B000AF78607B680022D7
:103EA0001A70BD4602B080BD80B582B000AF021C62
:103EB0003960FB1D1A70FB1D1B78012B0AD0022BE9
:103EC0000FD0002B14D10E4B0D4A91693A680A436A
:103ED0009A610FE00A4B0A4AD1693A680A43DA61EB
:103EE00008E0074B064A116A3A680A431A6201E081
:103EF000172300E00023181CBD4602B080BDC04659
:103F00000004004080B582B000AF021CFB1D1A7097
:103F1000064BFA1D1278111C1F220A400121081CB1
:103F20009040021C1A60BD4602B080BD00E100E076
:103F300080B584B000AF2C4B7B60002040212B4B20
:103F400098473B1C181C2A4B98473B1C00221A70B0
:103F50003B1C0320191C274B98470320264B9847EE
:103F60000023FB6016E0FB689B001021C919CB18E9
:103F70000C3B1A68FB689B001021C919CB180C3B3D
:103F80001B681B78DBB201210B43DBB21370FB68AB
:103F90000133FB60FB68002BE5D0C046174B984708
:103FA000031C002BFAD13B1C0B3300221A700DE0CE
:103FB0003B1C0B331A78124B92000021D1503B1C52
:103FC0000B331A783B1C0B3301321A703B1C0B333A
:103FD0001B780F2BECD904200A4B98470A4B9847C3
:103FE000BD4604B080BDC04600180040A93E000098
:103FF000953E0000A52E0100E52E01004D3E00007B
:1040000034050020053F00000D40000080B582B05F
:1040100000AF144B3B6000237B6016E07B689B0085
:104020000821C919CB18083B1A687B689B00082136
:10403000C919CB18083B1B681B78DBB202210B4364
:10404000DBB213707B6801337B607B68002BE5D0AB
:10405000C046054B9847031C002BFAD1BD4602B061
:1040600080BDC046001800404D3E000090B587B0AE
:1040700000AF021C3960FB1D1A703B1C0833181C72
:10408000374B98473B685B68DAB23B1C08331A70C1
:104090003B1C083300225A703B681A7A3B1C0833D9
:1040A0009A703B681B68DAB23B1C0833101C191C61
:1040B0002C4B9847FB1D1B78181C2B4B9847031C57
:1040C0003B61FB1D1A78072313409B00FB603B6894
:1040D000DB7A7B613B689B7A002B03D07B690822EB
:1040E00013437B61FB1D1B78DB08DBB21A1CFB1D35
:1040F0001B78DB08DBB2191C3B6906318900CB5801
:10410000F9680F20041C8C40211CC9431940FB682E
:104110007869041C9C40231C19433B6906329200B9
:10412000D1503B685B7A002B0BD03B695A69FB1D71
:104130001B780121081C9840031C1A433B695A61F3
:104140000BE03B695B69FA1D127801210C1C94405D
:10415000221CD2431A403B695A61BD4607B090BD4C
:10416000DD3D0000C5310100053E000080B584B092
:1041700000AF021CFB1D1A703B1C0F33FA1D127896
:1041800052091A703B1C0F331B78002B0BD1084BC4
:10419000BB603B1C0F331B789B001022D219D31835
:1041A000083B1B6800E00023181CBD4604B080BD1E
:1041B0000018004080B584B000AF021CFB1D1A70CF
:1041C000FB1D1B78181C0C4B9847031CFB60FB1D48
:1041D0001A781F2313400122111C99400B1CBB604D
:1041E000FB681B69BA6813405A1E9341DBB2181C66
:1041F000BD4604B080BDC0466D41000080B584B0AE
:1042000000AF021CFB1D1A70FB1D1B78181C094B0C
:104210009847031CFB60FB1D1A781F2313400122E3
:10422000111C99400B1CBB60FB68BA681A61BD4643
:1042300004B080BD6D41000080B582B000AF7860F1
:10424000FB1C1970BB1C1A70BB1C1B78002B01D007
:10425000172319E0FB1C1A780D4B9200D358002B42
:1042600007D1FB1C1A780A4B92007968D1500023C1
:104270000AE0FB1C1A78064B9200D2587B689A42DF
:1042800001D1002300E01D23181CBD4602B080BDF3
:104290003405002080B584B000AF0A1CFB1D011C52
:1042A0001970BB1D1A70BB1D1B78002B0ED1FB1D96
:1042B0001B78181C084B9847031CFB60FB1D1B78E0
:1042C00001229A40FB68DA60002300E01723181CE3
:1042D000BD4604B080BDC0466D41000080B500AF52
:1042E000154B00221A7021E0134B1B78181C134B3E
:1042F0009847031C002B13D00F4B1B78181C104B36
:1043000098470D4B1B781A1C0E4B9200D358002B6C
:1043100006D0094B1B781A1C0A4B9200D3589847B9
:10432000054B1B780133DAB2034B1A70024B1B7832
:104330000F2BD9D9BD4680BD74050020B5410000C2
:10434000FD4100003405002080B582B000AF074B6E
:104350007B607B681B7DDBB21A1C012313405A1E55
:104360009341DBB2181CBD4602B080BD0040004145
:1043700080B582B000AF021C3960FB1D1A70FB1DB6
:104380001B78012B0AD0022B0FD0002B14D10E4B1F
:104390000D4A91693A680A439A610FE00A4B0A4A4A
:1043A000D1693A680A43DA6108E0074B064A116AA4
:1043B0003A680A431A6201E0172300E00023181C40
:1043C000BD4602B080BDC0460004004080B584B048
:1043D00000AF7860334BFB6001200421324B9847DB
:1043E000FB681B8B9BB22022FF3213439AB2FB68FF
:1043F0001A832E4B9847031C01225340DBB2002B3B
:1044000001D0052349E07B681B781B021A1CC023DE
:104410009B001A407B685B78DB01191CFF230B4073
:104420001A437B689B785B00191C1E230B401A43C0
:104430007B68DB78191C01230B409B041A437B68C3
:104440001B791B04191CC0239B020B401A43FB68F9
:104450005A60FB689B681B0C1A1C07231340DBB2D5
:104460000822111C99400B1C9AB2114B1A80FB6850
:104470009B68002293439AB20D4B5A807B685A780E
:104480000B4B1A71FB681B8B9BB21A1C80235B00C1
:10449000134001D0102300E00023181CBD4604B0D7
:1044A00080BDC04600400041714300004943000008
:1044B0009004002080B586B000AFB9607A603B1CE4
:1044C0000F33021C1A70324B1B88314A52885A43F0
:1044D000BB689A4201D2182356E02E4B7B617B6960
:1044E0005B683B613B698022D2021A437B695A6058
:1044F0007B691B8B9BB22022FF3213439AB27B69EC
:104500001A83254B9847031C01225340DBB2002B32
:1045100001D0052338E03B1C0F331B78452B1AD8FC
:104520009A001E4BD3181B689F467B691B8B9BB25E
:104530001A1C80235B00134001D0102324E0BB68C9
:104540009B085A007B69DA6108E0BB689B085A0047
:104550007B69DA6102E0172316E0C0463B1C0F338B
:104560001B789BB20E4A13439AB27B691A80C046ED
:10457000094B9847031C01225340DBB2002BF7D1B3
:104580007B693A695A600023181CBD4606B080BD9D
:104590009004002000400041494300005870010091
:1045A00000A5FFFF80B588B000AFF860B960BB1D03
:1045B0001A80464B1B88454A52885A43FB689A42E8
:1045C00001D218237DE0414B1B88013BFA68134060
:1045D00001D0182375E03D4B1B88BA1D12889A4202
:1045E00001D917236DE03A4B7B613A4B9847031C86
:1045F00001225340DBB2002B01D0052361E07B692F
:10460000354A1A80C046334B9847031C0122534059
:10461000DBB2002BF7D17B691B8B9BB22022FF32D0
:1046200013439AB27B691A83FB685B08FB613B1CEE
:104630001A3300221A8030E03B1C1A331B88BA68F8
:10464000D3181A783B1C18331A803B1C1A331A886B
:10465000BB1D1B88013B9A4210DA3B1C1A331B8896
:104660000133BA68D3181B781B029AB23B1C18336B
:104670001B8813439AB23B1C18331A80FB695A1CDF
:10468000FA615B003A1C183212881A803B1C1A33FC
:104690003A1C1A32128802321A803A1C1A32BB1D96
:1046A00012881B889A42C7D3BB1D1B883F2B07D893
:1046B000FB680420191C0022084B9847031C00E0EB
:1046C0000023181CBD4608B080BDC04690040020E1
:1046D000004000414943000044A5FFFFB5440000ED
:1046E00080B584B000AF78601A4B1B88194A528895
:1046F0005A437B689A4201D2182326E0154B1B8847
:104700009B00013B7A68134001D018231DE0124B37
:10471000FB60124B9847031C01225340DBB2002B75
:1047200001D0052311E0FB681B8B9BB22022FF32D6
:1047300013439AB2FB681A837B689B085A00FB6894
:10474000DA61FB68064A1A800023181CBD4604B0D3
:1047500080BDC04690040020004000414943000055
:1047600002A5FFFF80B582B000AF78607B680022B1
:104770001A70BD4602B080BD80B582B000AF021C89
:104780003960FB1D1A70FB1D1B78012B0AD0022B10
:104790000FD0002B14D10E4B0D4A91693A680A4391
:1047A0009A610FE00A4B0A4AD1693A680A43DA6112
:1047B00008E0074B064A116A3A680A431A6201E0A8
:1047C000172300E00023181CBD4602B080BDC04680
:1047D0000004004080B582B000AF78607B68802222
:1047E0001A707B6800225A707B6801229A707B687D
:1047F0000022DA70BD4602B080BDC04680B500AF71
:10480000054B9B78DBB21A1C022313405A1E9341BE
:10481000DBB2181CBD4680BD0020004180B584B0CD
:1048200000AF78607B681B68FB60FB681B8A9BB2EB
:104830001A1C80231B0213405A1E9341DBB2181C22
:10484000BD4604B080BDC04680B582B000AF786080
:10485000C0467B68181C044B9847031C002BF8D1FA
:10486000BD4602B080BDC0461D480000B0B58CB04A
:1048700002AF786039607B681B68BB617B681B682E
:10488000181C6D4B9847031C7B617B690D333B61A2
:1048900000237B6200233B623B1C0C3300221A8006
:1048A0003B1C0F3300221A703B1C0E3310221A706F
:1048B0003B681A683B68DB681A433B689B7D5B0773
:1048C00013437B623B1C1F3300221A703B685B68FA
:1048D000002B1FD08022520593424CD13B68DB7DD8
:1048E00001225340DBB2002B13D03B681D693B69AA
:1048F000DBB2181C514B9847021C3C1C1F343B1C5C
:104900000C33281C111C1A1C4D4B9847031C237098
:1049100031E030E03B68DB7D002B13D03B68186949
:104920003B6899693C1C1F343A1C0C323B1C0F330A
:104930001B783D1C0E352D780095424DA847031C71
:10494000237017E03B681D693B69DBB2181C3B4BC9
:104950009847011C3C1C1F343A1C0C323B1C0F3383
:104960001B78381C0E3000780090281C354DA84765
:10497000031C2370C0463B1C1F331B78002B03D045
:104980003B1C1F331B7852E07B68181C2E4B98474A
:104990003B1C0C331A88BB695A813B685B687A6A96
:1049A00013437B623B68DB7D01225340DBB2002B6B
:1049B00003D07B6A042213437B623B689A7A3B688C
:1049C000DB7A1343DBB21A1C3B681B7D5B041A4382
:1049D0003B685B7D1B0413433B623B681B89FF2BD9
:1049E00009D07B6A8022520413437B623B681B8997
:1049F0003A6A13433B623B681B7F002B04D1134B85
:104A00009847031C002B03D07B6A802213437B62F0
:104A10007B68181C0C4B9847BB693A6A5A607B68E4
:104A2000181C094B9847BB697A6A1A600023181C46
:104A3000BD460AB0B0BDC046851801000530010072
:104A4000151401007914010049480000FD470000D9
:104A500090B593B000AFF860B9607A603B1C3B330F
:104A600000221A70FB68BA681A60FB681B687B63D7
:104A7000FB681B68181C7F4B9847031C3B633B6B10
:104A80000233FB623B6B0D33BB627B6B1A68012305
:104A9000134001D00523E9E07B6B1A680223134021
:104AA00001D01C23E2E0FB6A0122111C99400B1C7F
:104AB0000220191C704B98473B1C2433181C6F4B69
:104AC00098477B685A7F3B1C24331A70BB6ADAB262
:104AD0003B1C2433101C191C694B9847BB6ADBB282
:104AE000181C684B98477B685B7F181C0021664B3D
:104AF00098477B68DA7AFB685A717B681A7DFB6895
:104B00009A717B685A7DFB68DA713C1C3B34FA6809
:104B10007B68101C191C5D4B9847031C23703B1CC1
:104B20003B331B78002B03D03B1C3B331B789DE0B1
:104B30003B1C2033181C564B98473B1C203300224B
:104B40005A703B1C203300229A707B681A6A3B1C07
:104B500010331A607B685A6A3B1C10335A607B68BA
:104B60009A6A3B1C10339A607B68DA6A3B1C1033EC
:104B7000DA603B1C473300221A702CE03B1C4733A1
:104B80001A783B1C10339200D3583B643B6C002BCB
:104B900009D1BA683B1C47331B78101C191C3D4BCC
:104BA0009847031C3B643B6C01330DD03B6CDAB27D
:104BB0003B1C20331A703B6C1B0CDAB23B1C2033BD
:104BC000101C191C344B98473B1C47331A783B1C6C
:104BD000473301321A703B1C47331B78032BCDD966
:104BE0000023FB6308E0FB68FA6B023292000021AD
:104BF000D150FB6B0133FB63FB6B022BF3D9FB68DA
:104C000000229A61FB6800225A61FB680022DA8365
:104C1000FB6800229A83FA6820230021D154FA68A5
:104C200021230021D154FA6822230021D154FA68AB
:104C300023230021D154FB681B683C1C2734181C1B
:104C40000C4B9847031C23703B1C27331A78134BDB
:104C5000101C191C124B98473B1C27331A78114B18
:104C60009200F968D1503B1C3B331B78181CBD46A1
:104C700013B090BD8518010079470000654700001A
:104C8000A52E0100E52E0100291601006D48000047
:104C9000D5470000B5160100C5310100894E00005E
:104CA000D11801005439002080B584B000AF78607D
:104CB0007B681B68FB60FB681B8A9BB21A1C802305
:104CC0001B0213405A1E9341DBB2181CBD4604B0B0
:104CD00080BDC04680B582B000AF7860C0467B68BA
:104CE000181C044B9847031C002BF8D1BD4602B09A
:104CF00080BDC046A94C000080B586B000AFF8600A
:104D0000B960BB1D1A80FB681B687B61FB68BA1D1C
:104D10001288DA83FB68BA689A61FA68232305214E
:104D2000D1547B6901225A73BD4606B080BDC0468E
:104D300080B586B000AFF860B960BB1D1A80FB6813
:104D40001B687B61FB68BA1D12889A83FB68BA688E
:104D50005A61FA6822230521D154FB680022DA84C3
:104D6000FA682E230021D154FB68BA689A62FB6866
:104D7000BA1D12889A85FA6824230021D1547B69D0
:104D800004225A73BD4606B080BDC04680B584B0CB
:104D900000AFF860B960FB1D1A70FB1D1A78FB6844
:104DA00002329200B968D150FA682023D35CDAB29B
:104DB000FB1D1B780121081C9840031CDBB2134328
:104DC000DBB2D9B2FA682023D154BD4604B080BD0D
:104DD00080B584B000AFF860B960BB1D1A80BB1D00
:104DE0001B88002B01D1172319E0FB68DB8B9BB2DA
:104DF000002B01D0052312E0FB68DB790122534030
:104E0000DBB2002B01D01C2309E0F968BA68BB1D96
:104E10001B88081C111C1A1C034B98470023181CE4
:104E2000BD4604B080BDC046F94C000080B584B0DA
:104E300000AFF860B960BB1D1A80BB1D1B88002B3A
:104E400001D1172319E0FB689B7901225340DBB2A3
:104E5000002B01D01C2310E0FB689B8B9BB2002B26
:104E600001D0052309E0F968BA68BB1D1B88081C3E
:104E7000111C1A1C034B98470023181CBD4604B094
:104E800080BDC046314D000080B588B000AF021C27
:104E9000FB1D1A70FB1D1A78C44B9200D358BB61DE
:104EA000BB691B687B61BB69181CC14B98477B6958
:104EB0009B7BDAB23B1C12331A807B695B7BDBB2D3
:104EC0001A1C3B1C1233391C123109880A401A8003
:104ED000BA692023D35CB96921228A5C1340DAB213
:104EE0003B1C10331A803B1C12331A8801231340D9
:104EF00044D0BB69DB8B9BB2002B3CD0BB699B6968
:104F00001B78DAB23B1C1E331A80BB699B695A1CA2
:104F1000BB699A61BB695B79012B12D1BB699B6943
:104F20001B78DBB21B029AB23B1C1E331B88134357
:104F30009AB23B1C1E331A80BB699B695A1CBB6921
:104F40009A613B1C1E331B88DB05DB0D9AB27B6923
:104F50001A83BB69DB8B9BB2013B9BB2BA69191CFC
:104F6000D183002B06D17B6901221A737B6902224F
:104F70005A7303E002E07B6901221A733B1C12336F
:104F80001A880223134011D07B6902221A73BA696E
:104F900023230021D1543B1C10331A8801231340D2
:104FA00004D0BB699B68BA69101C98473B1C12333C
:104FB0001A880423134000D1FFE0BB699B8B9BB28E
:104FC000002B00D1F6E07B691B8A9BB2D9B23B1C57
:104FD0000F3307220A401A703B1C0F331B78002B3B
:104FE00044D03B1C0F331A78022313400CD0BA690B
:104FF00022231A21D1547B691B8A9BB202221343BC
:105000009AB27B691A8224E03B1C0F331A7804237E
:1050100013400CD0BA6922231E21D1547B691B8A0C
:105020009BB2042213439AB27B691A8211E03B1CA3
:105030000F331A78012313400BD0BA6922231321AE
:10504000D1547B691B8A9BB2012213439AB27B69BC
:105050001A823B1C10331A880423134000D1ACE0A1
:10506000BB691B69BA69101C9847A6E07B691B8B5A
:105070009AB23B1C0C33D205D20D1A80BB695B6916
:105080003A1C0C321288D2B21A70BB695B695A1C86
:10509000BB695A61BB69DB8C9BB201339AB2BB69B5
:1050A000DA84BB699B8B9BB2013B9BB2BA69191C2A
:1050B0009183002B13D17B6904221A73BA692223CE
:1050C0000021D1543B1C10331A880223134000D115
:1050D0006BE0BB69DB68BA69101C98476DE0BB697F
:1050E000DB8C9BB2022B0ED0032B27D0012B54D18B
:1050F0003B1C0C331B88232B04D1BA6924230121C8
:10510000D1544AE049E0BA692423D35CDBB2002BD6
:1051100009D03B1C0C331B881B029BB202339AB292
:10512000BB699A8339E0BB699A6ABB695A61BB69FA
:105130000022DA84BB6903229A832EE0BA69242311
:10514000D35CDBB2002B1CD0BB699B8B9AB23B1C9F
:105150000C331B88D3189AB2BB699A83BB699B8BAB
:105160009BB2043B9AB2BB699A83BB699B8B9AB290
:105170008223DB009A420FD9BA6924230021D1543B
:105180000AE0BB699A6ABB695A61BB690022DA848A
:10519000BB6903229A83FFE7C0463B1C0C331B8884
:1051A000D9B2BA692E23D15407E006E05439002061
:1051B000D54C00007B6904221A73BD4608B080BD3F
:1051C00080B582B000AF78607B6800221A70BD465F
:1051D00002B080BD80B582B000AF021C3960FB1DFB
:1051E0001A70FB1D1B78012B0AD0022B0FD0002B4D
:1051F00014D10E4B0D4A91693A680A439A610FE047
:105200000A4B0A4AD1693A680A43DA6108E0074B57
:10521000064A116A3A680A431A6201E0172300E05D
:105220000023181CBD4602B080BDC04600040040EB
:1052300080B582B000AF78607B6880221A707B688E
:1052400000225A707B6801229A707B680022DA7013
:10525000BD4602B080BDC04680B584B000AF786066
:105260007B681B68FB60FB68DB7BDBB21A1C80235E
:1052700013405A1E9341DBB2181CBD4604B080BDDA
:1052800090B58DB000AF78603B1C0C330F4A13CA49
:1052900013C313CA13C303CA03C30023FB620DE085
:1052A0003B1C0C33FA6A9200D2587B689A4202D1B6
:1052B000FB6ADBB206E0FB6A0133FB62FB6A072B89
:1052C000EED90023181CBD460DB090BD70710100D1
:1052D00090B58FB000AFF860B9607A603B1C363390
:1052E00000221A803B1C353300221A703B1C3433D9
:1052F00000221A703C1C3134BB68181CC44B984700
:10530000031C23703A1C2832C24B111C1A1C0823A0
:10531000081C111C1A1CC04B98473A1C1832BF4B72
:10532000111C1A1C1023081C111C1A1CBA4B98477C
:105330003B1C333300221A700EE03B1C33331A78C7
:10534000FB68023292000021D1503B1C33331A78A3
:105350003B1C333301321A703B1C33331B78032B55
:10536000EBD9FB6800221A76FB6800225A763B1CB8
:1053700031331A78AA4B9200F968D150FB68BA68A9
:105380001A607B689B78082B07D13B1C31331A7855
:105390000123134001D01723D5E17B689A78FB687D
:1053A0001A71BB681B889BB21A1C0123134001D0E1
:1053B0000523C8E1BB68DB7BDBB21A1C102313405A
:1053C00001D01C23BFE1BB681B889BB21A1C0223BF
:1053D000134001D01C23B6E17B681B7C002B17D047
:1053E0003B1C1433181C8F4B98477B689B69DAB2BF
:1053F0003B1C14331A703B1C143301225A707B6817
:105400005B69DAB23B1C1433101C191C864B98479D
:105410007B681B7F002B17D03B1C1433181C814B5F
:1054200098477B685B6ADAB23B1C14331A703B1CEA
:10543000143301225A707B681B6ADAB23B1C1433A6
:10544000101C191C784B98473B1C31331A783B1CB5
:1054500018335200D35A0220191C744B98477B68AA
:105460009B78082B0BD13B1C31331B785A1C3B1CFF
:1054700018335200D35A0220191C6C4B98473B1C1E
:105480001033181C6A4B98477B681A783B1C103302
:105490001A703B1C31331B783A1C2832D25C3B1CFF
:1054A0001033101C191C634B98473B1C31331B787D
:1054B0003A1C2832D35C181C5F4B98477B689A785B
:1054C0007B689B791343DBB21A1C7B681B891343EF
:1054D00099B27B689A883B1C36330A431A807B68F2
:1054E0005B78002B09D03B1C36333A1C36321288CD
:1054F000802109010A431A80FFE7C046FB68181C97
:105500004E4B9847031C002BF8D1BB683A1C36322F
:1055100012881A807B685B7B002B03D03B1C3533E1
:1055200004221A707B689B7B002B08D03B1C353310
:105530003A1C3532127801210A431A70FFE7C0463F
:10554000FB68181C3D4B9847031C002BF8D1BB6827
:10555000FF221A713B1C35331B78002B0CD0C04640
:10556000FB68181C354B9847031C002BF8D1BB680F
:105570003A1C353212785A713B1C34337A68927A6D
:105580001A703B1C323300221A701DE03B1C323370
:105590001B787A68D318DB7A002B0ED03B1C323391
:1055A0001B781022111C99400B1CD9B23B1C3433C0
:1055B0003A1C343212780A431A703B1C32331A7880
:1055C0003B1C323301321A703B1C32331B78012BE7
:1055D000DCD9C046FB68181C184B9847031C002BED
:1055E000F8D1BB683A1C343212789A71C046FB6815
:1055F000181C124B9847031C002BF8D1FB681B7931
:10560000042B1DD0082B00D176E0002B4ED099E062
:105610008152000090710100FD6C01009871010041
:105620007805002031520000C5310100D55100003D
:10563000C1510000A52E0100E52E010059520000C5
:10564000C046FB68181C424B9847031C002BF8D13E
:105650007A682823D25CBB681A74C046FB68181CA1
:105660003B4B9847031C002BF8D17A682923D25C66
:10567000BB681A75C046FB68181C354B9847031C5D
:10568000002BF8D17A682A23D25CBB681A76C04610
:10569000FB68181C2E4B9847031C002BF8D17A6826
:1056A0002B23D25CBB685A7600234CE0C046FB68D3
:1056B000181C274B9847031C002BF8D17B681A8DC8
:1056C000BB681A82C046FB68181C214B9847031C14
:1056D000002BF8D17B685A8DBB681A83C046FB68E3
:1056E000181C1B4B9847031C002BF8D17B689A8D24
:1056F000BB685A83002326E0C046FB68181C144B85
:105700009847031C002BF8D17B689A6ABB681A6122
:10571000C046FB68181C0E4B9847031C002BF8D1A1
:105720007B68DA6ABB689A61C046FB68181C084B44
:105730009847031C002BF8D17B681A6BBB68DA61B1
:10574000002300E01723181CBD460FB090BDC046D3
:105750005952000080B584B000AFF860B960FB1DFD
:105760001A70FB1D1A78FB6802329200B968D1509A
:10577000FB1D1B78022B07D1FB681B7E10221343F5
:10578000DAB2FB681A761AE0FB1D1B78032B07D1EF
:10579000FB681B7E20221343DAB2FB681A760EE008
:1057A000FB681B7EDAB2FB1D1B780121081C9840A8
:1057B000031CDBB21343DBB2DAB2FB681A760023B8
:1057C000181CBD4604B080BD80B500AF0020024B60
:1057D0009847BD4680BDC0466958000080B500AFFF
:1057E0000120024B9847BD4680BDC0466958000065
:1057F00080B500AF0220024B9847BD4680BDC04631
:105800006958000080B500AF0320024B9847BD46A1
:1058100080BDC0466958000080B500AF0420024B2F
:105820009847BD4680BDC0466958000080B500AFAE
:105830000520024B9847BD4680BDC0466958000010
:1058400080B500AF0620024B9847BD4680BDC046DC
:105850006958000080B500AF0720024B9847BD464D
:1058600080BDC0466958000080B584B000AF021CFE
:10587000FB1D1A70FB1D1A78284B9200D358FB6051
:10588000FB681B689B7BDBB2FA68127E1340DAB2BE
:10589000FB68597E3B1C0B330A401A703B1C0B33D0
:1058A0001A780123134008D0FB689B68FA68101C23
:1058B0009847FB681B6801229A733B1C0B331A78CC
:1058C0000223134008D0FB68DB68FA68101C984775
:1058D000FB681B6802229A733B1C0B331A78102357
:1058E000134008D0FB681B69FA68101C9847FB68D6
:1058F0001B6810229A733B1C0B331A782023134029
:1059000008D0FB685B69FA68101C9847FB681B6845
:1059100020229A73BD4604B080BDC04678050020A1
:1059200080B582B000AF021C3960FB1D1A70FB1DF0
:105930001B78012B0AD0022B0FD0002B14D10E4B59
:105940000D4A91693A680A439A610FE00A4B0A4A84
:10595000D1693A680A43DA6108E0074B064A116ADE
:105960003A680A431A6201E0172300E00023181C7A
:10597000BD4602B080BDC0460004004080B582B084
:1059800000AF084B7B607B68DB79DBB2DBB25BB2DC
:10599000002B01DA012300E00023181CBD4602B0F1
:1059A00080BDC0460010004080B582B000AF074BFC
:1059B0007B607B681B78DBB21A1C802313405A1E65
:1059C0009341DBB2181CBD4602B080BD0010004000
:1059D00080B586B000AF7860564B3B610020102147
:1059E000554B9847554B9847031C002B01D010236B
:1059F0009CE07B68DB78002B01D1172396E07B6865
:105A0000DA787B681B799A4205D37B68DA787B6801
:105A10005B799A4201D2172388E03B691B78DBB29D
:105A200002229343DAB23B691A707B685B780122E9
:105A30005340DBB2002B01D0002377E07B689A78DB
:105A40003B1C0C331A703B1C0C330120191C3C4BC3
:105A5000984701203B4B98477B681B78002B03D06D
:105A60000120394B9847FFE7C046384B9847031C45
:105A7000002BFAD100237B617B68DB78013B7A69DC
:105A800013437B617B681B79002B0FD03B691B782C
:105A9000DBB204221343DAB23B691A707B681B79CC
:105AA000013B1B017A6913437B6107E03B691B786B
:105AB000DBB204229343DAB23B691A70C046234B2F
:105AC0009847031C002BFAD17B69DAB23B695A7004
:105AD0007B685B79002B0CD0C0461C4B9847031C9D
:105AE000002BFAD17B685B79013BDAB23B699A7093
:105AF000FFE7C046154B9847031C002BFAD17B6883
:105B00001B78002B09D03B691B78DBB28022524204
:105B10001343DAB23B691A7007E03B691B78DBB2CA
:105B200002221343DAB23B691A700023181CBD46E7
:105B300006B080BD0010004021590000A9590000A6
:105B4000A52E0100E52E0100C12F01007D590000A6
:105B500080B582B000AF074B7B60C046064B9847CC
:105B6000031C002BFAD17B68A5221A72BD4602B035
:105B700080BDC046001000407D59000080B586B051
:105B800000AFBB1D18807B1D1970BB1C1A803B1C0D
:105B9000173300221A703B1C1433354A92781A705E
:105BA000344B1B78002B5CD03B1C153300221A7041
:105BB0003B1C163300221A7045E03B1C16331A7842
:105BC0002D4B5200D35A1AB2BB1C00215B5ED31A74
:105BD0003B613B1C14331A78131C9B009B185B0021
:105BE000FB60FA68254B101C05219847031CFB60DD
:105BF0003B69FA6853433B613A69204B101C0A2108
:105C00009847031C3B617B1D1B78012B0AD1BB1DF0
:105C100000215A5E3B699A420EDD3B1C153301227E
:105C20001A7009E0BB1D00215A5E3B699A4203DAF3
:105C30003B1C153301221A703B1C16331A783B1C8F
:105C4000163301321A703B1C16331B78042BB4D95F
:105C50003B1C15331B78002B03D13B1C173301224F
:105C60001A703B1C17331B78181CBD4606B080BD4C
:105C7000982F002008060020F8050020D5460100D6
:105C800080B586B000AFF860B9607A603B603B1CBD
:105C9000173300221A70144B1B78002B1CD0134BA7
:105CA0001B889AB2FB681A80114B1B889AB2BB689A
:105CB0001A80104B1B889AB27B681A803B1C1733E2
:105CC00001221A700C4B1B78002B05D00A4B0022C6
:105CD0001A703B6801221A703B1C17331B78181C82
:105CE000BD4606B080BDC046CA0500209E04002007
:105CF000A0040020A20400203606002080B586B053
:105D000000AFF860B9607A603B1C173300221A704C
:105D10000E4B1B78002B12D00D4B1B889AB2FB68E0
:105D20001A800C4B1B889AB2BB681A800A4B1B88DE
:105D30009AB27B681A803B1C173301221A703B1CF5
:105D400017331B78181CBD4606B080BDCA0500205D
:105D50009E040020A0040020A204002080B584B08E
:105D600000AF021CFB1D1A703B1C0F3300221A707F
:105D70003B1C0C3300221A703A1C0C32FB1D1B78A2
:105D8000101C191C0122094B9847031C002B05D03D
:105D90003B1C0F333A1C0C3212781A703B1C0F3329
:105DA0001B78181CBD4604B080BDC04611B300006E
:105DB00080B584B000AF0A1CFB1D011C1970BB1D0F
:105DC0001A703B1C0C33BA1D12781A703A1C0C3234
:105DD000FB1D1B78101C191C0122024B9847BD4665
:105DE00004B080BD91B4000080B582B000AF202027
:105DF00097212C4B9847232008212A4B9847FB1DBD
:105E000000221A7016E0FB1D1A78274B5200002161
:105E1000D152FB1D1A78254B52000021D152FB1D97
:105E20001A78234B52000021D152FB1D1A78FB1D1A
:105E300001321A70FB1D1B78132BE4D91D4B002275
:105E40001A701D4B00221A701C4B00221A70FB1D89
:105E500000221A7007E01A4B00225A81FB1D1A78A3
:105E6000FB1D01321A70FB1D1B78042BF3D9154B57
:105E700000221A70144B00221A7004200121002203
:105E8000124B9847124B9847031C332B04D1042024
:105E9000012101220D4B98470123181CBD4602B079
:105EA00080BDC046B15D00009C050020CC050020EF
:105EB0000C06002002060020CA050020360600203D
:105EC000F8050020F40500200806002095E50000F4
:105ED0008D61000080B584B000AF964B9847031CDD
:105EE000002B00D11CE12920934B9847031C1A1C5E
:105EF0003B1C0C331A8028208F4B9847031C1A1C1C
:105F00003B1C0A331A803B1C0C333A1C0C3212889F
:105F100012021A803B1C0C33391C0C313A1C0A3219
:105F2000098812880A431A803B1C0C331A88834B59
:105F30001A802B20804B9847031C1A1C3B1C0C33E7
:105F40001A802A207C4B9847031C1A1C3B1C0A33DE
:105F50001A803B1C0C333A1C0C32128812021A8035
:105F60003B1C0C33391C0C313A1C0A32098812884C
:105F70000A431A803B1C0C331A88714B1A802D205F
:105F80006D4B9847031C1A1C3B1C0C331A802C20A9
:105F9000694B9847031C1A1C3B1C0A331A803B1C94
:105FA0000C333A1C0C32128812021A803B1C0C3340
:105FB000391C0C313A1C0A32098812880A431A80AB
:105FC0003B1C0C331A885F4B1A805F4B1B781A1CE2
:105FD0005A4B19885D4B5200D1525B4B1B781A1CEF
:105FE000574B19885A4B5200D152574B1B781A1CE9
:105FF000544B1988574B5200D152534B1B780133E5
:10600000DAB2514B1A70504B1B78132B6CD94E4B94
:1060100000221A70504B01221A70504B01221A7044
:106020004F4B00221A604E4B1A684E4B1A604D4B74
:106030001A684D4B1A603B1C0F3300221A702AE07D
:106040003B1C0F331A78414B5200D35A1AB2464BBD
:106050001B68D218444B1A603B1C0F331A783C4B18
:106060005200D35A1AB23F4B1B68D2183D4B1A60EC
:106070003B1C0F331A78374B5200D35A1AB2384BA5
:106080001B68D218364B1A603B1C0F331A783B1C26
:106090000F3301321A703B1C0F331B78132BCFD9EF
:1060A000314B1A68314B101C14219847031C7B603C
:1060B0007B689AB22E4B1A802A4B1A682B4B101C05
:1060C00014219847031C7B607B689AB2294B1A8085
:1060D000234B1A68254B101C14219847031C7B6026
:1060E0007B689AB2244B1A80174B1B78002B17D170
:1060F000224B1B781A1C1E4B1988214B5200D1527F
:106100001E4B1B780133DAB21C4B1A701B4B1B78E9
:10611000042B05D9194B00221A701A4B01221A7050
:106120000E4B1B78002B01D0174B9847BD4604B08F
:1061300080BDC046B16100005D5D00009804002094
:106140009A0400209C040020020600209C050020E8
:10615000CC0500200C060020CA05002036060020D1
:1061600098050020C405002004060020D546010043
:106170009E040020A0040020A2040020F4050020BA
:10618000F805002008060020D584000090B583B0F3
:1061900000AFFC1D0F20054B9847031C2370FB1D0F
:1061A0001B78181CBD4603B090BDC0465D5D000065
:1061B00080B500AF0123181CBD4680BD80B584B0FA
:1061C00000AF021CFB1D1A703B1C0F33FA1D127826
:1061D000D2091A703B1C0E33FA1D127852091A703C
:1061E0000D4BBB603B1C0F331B78002B0ED13B1CAF
:1061F0000F331B789B001022D219D318083B1A6862
:106200003B1C0E331B78DB01D31800E00023181C65
:10621000BD4604B080BDC0460044004180B582B098
:1062200000AF021CFB1D1A70FB1D1B78181C034BD2
:106230009847031C181CBD4602B080BDBD6100001C
:1062400080B582B000AF78607B6800221A707B68EE
:1062500001225A707B6800229A70BD4602B080BD50
:1062600080B584B000AF0A1CFB1D011C1970BB1D5A
:106270001A70FB1D1B78181C0D4B9847031CFB6004
:10628000FB1D1A781F2313400122111C99400B1C7F
:10629000BB60BB1D1B78002B03D0FB68BA689A61FA
:1062A00002E0FB68BA685A61BD4604B080BDC046D2
:1062B0001D62000080B582B000AF021CBB1D1A80B9
:1062C000054BBA1D12881A80C046034B1B88002B51
:1062D000FBD1BD4602B080BDC236002080B582B081
:1062E00000AF3B1D181C1B4B98473B1D01221A7029
:1062F0003B1D0920191C184B984709200021174BFA
:1063000098473B1D0820191C134B98470820012172
:10631000124B98472820124B9847092001210F4B18
:10632000984728200E4B9847082001210B4B98478F
:1063300014200B4B98470B4B01221A700A4B012279
:106340001A700A4B00221A70094B9847181CBD4658
:1063500002B080BD41620000950C01006162000046
:10636000B5620000A4040020A22E0020C82E002048
:1063700031D2000080B582B000AF3B1D181C134B1A
:1063800098473B1D01221A703B1D0920191C104B18
:106390009847092000210F4B98473B1D0820191CE6
:1063A0000B4B9847082001210A4B984728200A4B9D
:1063B00098470A4B00221A70094B02221A70094BA7
:1063C00002221A70181CBD4602B080BD4162000056
:1063D000950C010061620000B5620000A404002079
:1063E000A22E0020C82E002080B582B000AF7860B9
:1063F0007B6800221A607B6800225A607B68012259
:106400001A727B6801225A727B6800229A727B683A
:106410000222DA72BD4602B080BDC04680B584B0AB
:1064200000AF021CBB1D1A803B1C0E3300221A80D9
:106430003B1C093300221A703B1C0A33424A128863
:106440001A803B1C0A331B88002B07D03B1C0A33E5
:106450001A883B1C0A33013A1A8004E03B1C0A33B9
:106460008022D2001A803B1C0C3300221A80374B4A
:106470001A888023DB009A4204D9344B8022D20050
:106480001A804DE04CE03B1C0A331A88304B520016
:10649000D35ABA1D12889A4216D93B1C09330122DD
:1064A0001A703B1C0E333A1C0E3212881A803B1CA9
:1064B0000C333A1C0C3212881A803B1C0A333A1CEB
:1064C0000A3212881A802BE03B1C0C331A883B1CC2
:1064D0000C3301321A803B1C0E331A883B1C0E33DE
:1064E00001321A803B1C0A331B88002B0DD03B1C49
:1064F0000A331A883B1C0A33013A1A803B1C0933C1
:106500003A1C093212781A700AE03B1C0A338022C6
:10651000D2001A803B1C09333A1C093212781A70D7
:106520003B1C09331B78002B06D1084B1B883A1CF7
:106530000C3212889A42A6D33B1C0E331B88181CBF
:10654000BD4604B080BDC0468E1E0020A6040020BB
:10655000901E002080B584B000AF3B1D181C0B4B73
:1065600098473B1D2B221A603B1D00225A603B1DA1
:1065700000221A723B1D0322DA723B1D0B20191CEC
:10658000034B9847BD4604B080BDC046E963000098
:106590006D40000080B500AF054B181C0B21002298
:1065A000044B98470B200021034B9847BD4680BD04
:1065B000BD650000394200009542000098B500AF6B
:1065C000224B1B8801339AB2204B1A80204B1B7838
:1065D000012B24D11F4B1A881F4B9A4205D91D4B02
:1065E00000221A801D4B01221A701A4B1B881C1C9A
:1065F00001201B4B9847031C191C1A4B6200D152F7
:10660000144B1B885A1C91B2124A11801A1C0F4B52
:106610001988144B8020C00012185200D1520C4B24
:106620001B78032B0FD1104B1B88002B0BD00E4B6C
:106630001B88013B9AB20C4B1A800B4B1B88002B1A
:1066400001D10A4B9847BD4698BDC046A80400201A
:10665000AB0400208E1E0020FF030000AA040020CF
:10666000A9A50000901E0020C42E0020518D00001E
:1066700080B584B000AF021CFB1D1A703B1C0F33A9
:10668000FA1D1278D2091A703B1C0E33FA1D1278CB
:1066900052091A700D4BBB603B1C0F331B78002B4B
:1066A0000ED13B1C0F331B789B001022D219D3183C
:1066B000083B1A683B1C0E331B78DB01D31800E043
:1066C0000023181CBD4604B080BDC04600440041F4
:1066D00080B500AF034B01221A70BFF35F8F62B623
:1066E000BD4680BD4400002080B582B000AF021CD2
:1066F000FB1D1A70FB1D1B78181C034B9847031CCD
:10670000181CBD4602B080BD7166000080B582B025
:1067100000AF78607B6800221A707B6801225A7093
:106720007B6800229A70BD4602B080BD80B584B0FF
:1067300000AF021CFB1D1A70FB1D1B78181C0C4BB4
:106740009847031CFB60FB1D1A781F23134001228E
:10675000111C99400B1CBB60FB681B6ABA68134094
:106760005A1E9341DBB2181CBD4604B080BDC04622
:10677000E966000080B584B000AF0A1CFB1D011C57
:106780001970BB1D1A70FB1D1B78181C0D4B984708
:10679000031CFB60FB1D1A781F2313400122111CF0
:1067A00099400B1CBB60BB1D1B78002B03D0FB6802
:1067B000BA689A6102E0FB68BA685A61BD4604B0E3
:1067C00080BDC046E966000080B582B000AF786049
:1067D0007B6800221A607B6800225A607B68012275
:1067E0001A727B6801225A727B6800229A727B6857
:1067F0000222DA72BD4602B080BDC04680B500AF4D
:10680000124B02221A70124B02221A70114B0122F3
:106810001A70114B1B7904221343DAB20E4B1A7112
:106820000E4B02221A700E4B05229A700D4B9847A0
:106830000D4B00221A800D4B00221A70074B0222CA
:106840001A70084B9847BD4680BDC046C82E002030
:10685000A22E00209C2E002060360020AA2E0020B0
:10686000982F0020756C0000C62E00208136002075
:1068700080B500AF064B02221A70064B02221A7036
:10688000054B01221A70054B01221A70BD4680BDCE
:10689000C82E0020A22E00209C2E0020AA2E002010
:1068A00080B584B000AF021CFB1D1A703B1C0F3377
:1068B00001221A70FB1D1B78012B38D002DC002B43
:1068C00006D0AAE0022B61D0032B00D176E0A4E031
:1068D000634B1B78002B22D0624B1B88002B0BD103
:1068E000614B9B7840221343DAB25F4B9A703B1C9A
:1068F0000F3300221A7090E05B4B9B780422134305
:10690000DAB2594B9A70584B9B7840229343DAB2D3
:10691000554B9A703B1C0F3300221A707DE0524B8E
:106920009B7804229343DAB24F4B9A7075E04F4B39
:106930001B78002B22D04B4B1B88002B0BD14A4BD2
:106940009B7840221343DAB2474B9A703B1C0F33BB
:1069500000221A7061E0444B9B7808221343DAB29C
:10696000414B9A70404B9B7840229343DAB23E4BA6
:106970009A703B1C0F3300221A704EE03A4B9B7802
:1069800008229343DAB2384B9A7046E0354B1B88A5
:10699000002B0BD1344B9B7840221343DAB2324B9D
:1069A0009A703B1C0F3300221A7036E02E4B9B78F6
:1069B00040229343DAB22C4B9A702EE02B4B1B787B
:1069C000002B0BD1284B9B7802221343DAB2264BC3
:1069D0009A703B1C0F3300221A7006E0224B9B7802
:1069E00002229343DAB2204B9A701D4B1B78002B86
:1069F0000BD11D4B9B7801221343DAB21A4B9A70CC
:106A00003B1C0F3300221A7006E0174B9B780122C3
:106A10009343DAB2144B9A70C046144B1B78002B88
:106A20000FD10F4B1B78002B0BD10F4B9B782022E3
:106A30001343DAB20C4B9A703B1C0F3300221A70CE
:106A400006E0094B9B7820229343DAB2064B9A70FA
:106A50003B1C0F331B78181CBD4604B080BDC046DC
:106A600034300020A8040020603600203E30002092
:106A700080B500AF394B1B78122B00D96BE09A0020
:106A8000374BD3181B689F46364B02221A70364B81
:106A900002221A70354B01221A705CE0314B02223F
:106AA0001A70314B03221A70304B01221A7052E0D7
:106AB0002C4B03221A702C4B02221A702B4B0122F2
:106AC0001A7048E0274B02221A70274B03221A70D3
:106AD000264B01221A703EE0224B00221A70244BF2
:106AE0001B791A1C2023134003D01E4B04221A705A
:106AF0001CE01F4B1B791A1C082313400DD01C4BA4
:106B00001B791A1C0123134003D0164B07221A705D
:106B10000CE0144B06221A7008E0154B1B791A1C66
:106B20000123134002D00F4B00221A700E4B022299
:106B30001A700E4B01221A700DE00B4B01221A70D5
:106B40000A4B01221A7006E0084B02221A70064B0B
:106B500001221A70C046BD4680BDC046AA2E002044
:106B6000A8710100C82E0020A22E00209C2E00201B
:106B70006036002090B583B000AFBC1D0020344BC0
:106B80009847031C2380BB1D1A88324B9A421ED89B
:106B9000314B1B881D2B0CD9304B1B791A1C082339
:106BA000134006D12D4B1B7908221343DAB22B4B2D
:106BB0001A71BB1D1A88F423FF339A4224D8274B3D
:106BC0001B7920221343DAB2244B1A711CE0234BA9
:106BD0001B7920229343DAB2204B1A711F4B1B7989
:106BE0001A1C082313400CD0BB1D1A881C4B9A4258
:106BF0000AD91A4B1B7908229343DAB2174B1A7140
:106C000002E0154B00221A80164B1B78012B18D07E
:106C1000144B1B78022B14D0BB1D1A88124B9A42BE
:106C200004D925200121114B984709E0BB1D1A8882
:106C30000F4B9A4204D8252000210C4B984704E0C2
:106C400003E025200021094B9847BD4603B090BDC5
:106C5000A9A50000D7040000BA2E0020603600204D
:106C600025050000AA2E00205B06000075670000C5
:106C70002C06000090B583B000AFBB1D00221A7037
:106C80007C1CC84B9847031C2370C74B9847C74BC5
:106C90001B881BB2012B07D1C54B1B794022134324
:106CA000DAB2C34B1A7106E0C14B1B794022934301
:106CB000DAB2BF4B1A71BF4B1B781A2B01D901F006
:106CC000E4FB9A00BC4BD3181B689F46BB4B98470C
:106CD000B84B06221A70BA4B1B78002B0BD0B94B5D
:106CE0009847B94B0F221A70B84B1B780222934376
:106CF000DAB2B64B1A70AE4B00221A7101F0C5FB26
:106D0000B24B1B781A1C0223134003D1AC4B1B78E7
:106D1000002B15D1A94B9847AB4B00221A70AB4BF7
:106D20001B7802229343DAB2A84B1A700020A84BBA
:106D30009847A04B01221A70A64B984701F0A5FB7B
:106D400001F0A3FB25200021A34B984701F09DFBF8
:106D5000A24B00221A70A24B00221A70A14B0022F3
:106D60001A80934B00229A70924B03221A70904B18
:106D700000221A718E4B1B7904221343DAB28C4B1A
:106D80001A71994B9847994B9847974B9847984B4E
:106D900000221A70974B00221A70974B00221A702B
:106DA000FB1D00221A7004E0FB1D1A78FB1D013246
:106DB0001A70FB1D1B78092BF6D9904B1B88002BF2
:106DC0000AD08F4B1B88002B06D18E4B1B88002BC3
:106DD00002D1874B01221A70884B1B88002B0AD1E5
:106DE000874B1B88002B06D0864B1B88002B02D1BB
:106DF000814B01221A70814B1B88002B0AD1804BDA
:106E00001B88002B06D17F4B1B88002B02D0794BAF
:106E100001221A707C4B99221A707C4B00221A7046
:106E20007B4B9847704B98477A4B98477A4B9847DB
:106E3000FB1D00221A7006E0784B9847FB1D1A785C
:106E4000FB1D01321A70FB1D1B78072BF4D95C4B1C
:106E50001B78002B0CD05B4B98475B4B0A221A70B7
:106E60005A4B1B7802229343DAB2584B1A7008E04F
:106E70000020574B9847031C002B02D14D4B082292
:106E80001A704B4B1B791A1C0823134004D0494B32
:106E90001A221A7001F0F9FA01F0F7FA4B4B1B783D
:106EA0001A1C0223134003D1454B1B78002B30D111
:106EB000424B9847444B00221A70444B1B780222E5
:106EC0009343DAB2414B1A700020414B9847031CA0
:106ED000002B03D1374B08221A701AE0344B1B7970
:106EE0001A1C042313400FD14D4B9847364B0A22EE
:106EF0001A70304B0B221A702D4B1B7904229343CE
:106F0000DAB22B4B1A7104E02A4B04221A7001F0FA
:106F1000BCFA01F0BAFA434B1B88002B1DD0254B5D
:106F200005221A70404B00221A80404B00221A8022
:106F30003F4B00221A703F4B1B78002B0DD03E4B6D
:106F40009847214B0A221A70204B1B780222934348
:106F5000DAB21E4B1A7001F098FA01F096FA1B4B48
:106F60001B781A1C0223134019D0174B00221A70E9
:106F7000164B1B7802229343DAB2144B1A702A4B39
:106F80001B8801339AB2284B1A800E4B98470E4B40
:106F90000A221A70074B05221A7001F076FA01F0E6
:106FA00074FAC0463DAC0000756B0000363000201E
:106FB00060360020AA2E0020F4710100518D0000DF
:106FC00034300020418E00008E360020CC2E002070
:106FD000A16800007168000075670000B62E0020EF
:106FE000AE040020D02E0020515B00008DA90000CF
:106FF0005F3600205C3600205D360020BC04002097
:10700000BE040020C00400209A360020B4040020F2
:107010005DE40000D166000021AA000061AC000020
:10702000B98400003A300020B42E0020B8040020BB
:10703000AD0400203E300020D18E0000D34B1B78E1
:107040001A1C0223134019D0D14B00221A70CF4BC7
:107050001B7802229343DAB2CC4B1A70CD4B1B88BB
:1070600001339AB2CB4B1A80CB4B9847C84B0A22BC
:107070001A70CA4B05221A7001F007FA01F005FADE
:10708000BB1D00221A70C34B1B88082B30D1BF4B8D
:107090001B781A1C042313402AD0BC4B1B780422F3
:1070A0009343DAB2B94B1A70BD4B1A88BD4B9A4262
:1070B00002D9BB4B00221A80B94B1B881C1C012033
:1070C000B94B9847031C191CB84B6200D152B44B02
:1070D0001B881A1CB64B1988B44B8020C0001218AC
:1070E0005200D152AE4B1B8801339AB2AC4B1A807E
:1070F000BB1D1B78002B00D087E1A64B1B881A1CF8
:107100000123134003D17B1D00221A7002E07B1D76
:1071100001221A707B1D1B78092B01D901F0B4F9EB
:107120009A00A44BD3181B689F46A34B1B78002BD7
:1071300025D10120A14B9847031C002B0FD1974B61
:1071400007221A709E4B9847914B0A221A708F4B58
:107150001B7802229343DAB28C4B1A7007E0994BEA
:1071600098478E4B0E221A70894B02221A70874B59
:107170001B7802229343DAB2844B1A705AE0022041
:107180008E4B9847031C002B18D18F4B1B88002B6C
:1071900014D1824B07221A707D4B00221A70894B42
:1071A0009847874B98477A4B0A221A70774B1B787F
:1071B00002229343DAB2754B1A703BE0734B1B7893
:1071C0001A1C0223134035D0704B1B7802229343C4
:1071D000DAB26E4B1A707B4B98470220774B984778
:1071E000031C002B0FD16D4B07221A70744B98476C
:1071F000674B0A221A70654B1B7802229343DAB25E
:10720000624B1A700EE0654B07221A706C4B984760
:107210005F4B0A221A705D4B1B7802229343DAB24D
:107220005A4B1A70594B1B7802229343DAB2574BD0
:107230001A70EAE0E9E0654B1B78002B48D100208A
:107240005E4B9847031C002B06D1544B08221A7042
:107250004F4B00221A7033E04E4B1A885C4B9A4217
:1072600028D15C4B1B78002B05D04C4B08221A70A0
:10727000544B984724E0584B9847584B1B790422AD
:107280009343DAB2554B1A71444B0B221A704D4B93
:1072900098473F4B0A221A70514B00221A70514BEB
:1072A00000221A70504B5B7E012B09D14C4B0A22F5
:1072B0001A7005E0394B0F221A70354B02221A70F2
:1072C000324B1B7802229343DAB2304B1A709BE0A8
:1072D00002203A4B9847031C002B0CD13A4B1B88D9
:1072E000002B08D12D4B08221A70294B00221A704E
:1072F000344B984788E0254B1B781A1C0223134017
:1073000000D181E0214B1B7802229343DAB21F4B5C
:107310001A702C4B98470220284B9847031C002BCF
:1073200006D11E4B08221A70194B00221A7063E016
:10733000184B1A88264B9A4258D1264B1B78002BA3
:1073400005D0164B08221A701E4B984754E0224B6A
:107350009847224B1B7904229343DAB21F4B1A71D0
:107360000E4B0B221A70174B9847094B0A221A70C2
:107370001B4B00221A701B4B00221A701A4B5B7EAB
:10738000012B39D1164B0A221A7035E0CC2E002081
:107390008E360020B42E0020D18E0000AA2E0020B0
:1073A0008C1E0020FF030000A9A500008C0E002009
:1073B000A8040020607201003E300020A168000097
:1073C000418E0000518D00009E2E002034300020A0
:1073D000204E0000AD040020B9840000603600207B
:1073E000AF040020B0040020982F00208E4B0F2205
:1073F0001A708E4B02221A708D4B1B780222934317
:10740000DAB28B4B1A70FFE7C04601F03DF8884BAB
:107410001B781A1C0223134003D1864B1B78002BC8
:1074200013D1854B9847814B00221A70804B1B78F3
:1074300002229343DAB27E4B1A7000207F4B9847AA
:10744000794B08221A7001F020F801F01EF8794BF0
:107450001B78002B12D0754B1B78002B0ED1784B6C
:107460009847724B0A221A706F4B18221A70704B91
:107470001B7802229343DAB26D4B1A70714B1B7862
:10748000002B07D0704B9B78802252421343DAB214
:107490006D4B9A706C4B1B7910229343DAB26A4B96
:1074A0001A7100F0F2FF624B1B781A1C0223134082
:1074B0000AD0614B98475E4B1B7802229343DAB2A5
:1074C0005B4B1A7000F0E1FF00F0DFFF5E4B1B79B1
:1074D0001A1C0823134007D1534B00221A70BB1DFE
:1074E00001221A7000F0D1FF00F0CFFFBB1D002277
:1074F0001A70554B1B791A1C0823134005D14A4BAF
:1075000009221A70BB1D01221A70BB1D1B78002BAB
:1075100052D14E4B1B88002B08D04C4B1B881BB202
:10752000012B0AD14A4B1B88002B06D1464B1B79F5
:1075300002229343DAB2444B1A71454B1B88002B4D
:107540000AD0424B1B88002B06D0424B1B88002BD5
:1075500002D1404B01221A803D4B1B88002B2BD0BF
:107560003A4B1B88002B27D03A4B1B88132B23D96F
:10757000354B1B791A1C022313401DD1BB1D012260
:107580001A70314B1B7902221343DAB22E4B1A7157
:10759000254B11221A70304B9847244B0A221A703F
:1075A000234B1B7802229343DAB2214B1A702B4BE8
:1075B00000221A7000F069FF00F067FF284B0022DC
:1075C0001A80224B1B88002B08D0204B1B881BB233
:1075D000012B0AD11E4B1B88002B06D11A4B1B799D
:1075E00002229343DAB2184B1A711C4B00221A7014
:1075F00000201C4B9847031C1A1C1B4B1A800C4B79
:107600001B781A1C0223134009D0094B1B78022255
:107610009343DAB2064B1A70034B09221A70134BCC
:1076200000221A8000F031FFAA2E00208E360020A2
:10763000CC2E002034300020518D0000A1680000C5
:10764000418E0000AD04002060360020363000205E
:107650003C300020D02E0020D18E0000AE0400204F
:10766000C62E0020B9860000B02E0020C02E0020BB
:10767000BB1D00221A70B44B1B791A1C082313403F
:1076800005D0B24B19221A70BB1D01221A70B04BE3
:107690001B88002B08D0AE4B1B881BB2012B0AD1D4
:1076A000AC4B1B88002B06D1A74B1B7902229343BE
:1076B000DAB2A54B1A71A74B1B88002B0AD0A44B3A
:1076C0001B88002B06D0A44B1B88002B02D1A24B99
:1076D00001221A809F4B1B88002B29D09C4B1B88B2
:1076E000002B25D09C4B1B88132B21D9964B1B7943
:1076F0001A1C022313401BD1BB1D01221A70924B8E
:107700001B7902221343DAB28F4B1A718F4B11226D
:107710001A70924B9847924B0A221A70914B1B7821
:1077200002229343DAB28F4B1A708F4B00221A70E9
:107730008E4B1B781A1C0123134006D1824B1B79F8
:1077400010229343DAB2804B1A71BB1D1B78002BB9
:107750002ED1864B1B781A1C0123134028D07A4B5C
:107760001B791A1C1023134022D1BB1D01221A7051
:10777000754B1B7910221343DAB2734B1A71734B9A
:1077800014221A707A4B1B78092B05D8784B1B787A
:107790000133DAB2764B1A70704B9847704B0A225D
:1077A0001A70704B1B7802229343DAB26D4B1A7039
:1077B000BB1D1B78002B5ED100206E4B9847031C2D
:1077C0001A1C6D4B1A806D4BDA7EBB1C1A80BB1CD9
:1077D0001B88092B02D9BB1C00221A80BA1CBB1CB7
:1077E0001B88191CC900CB18191CC800191C031CC4
:1077F000CB181380BB1CBA1C12888021C9005218F8
:107800001A80BB1C1A885E4B1B8812B21BB2101C5C
:1078100001211A1C5B4B9847031C002B26D0524BAE
:107820001B780133DAB2504B1A70BB1D01221A705B
:107830004D4B03221A70454B0A221A704C4B1B7891
:10784000092B05D84A4B1B780133DAB2484B1A7022
:10785000424B9847424B0A221A70424B1B78022235
:107860009343DAB23F4B1A7000F00FFE3E4B0022FA
:107870001A7000F00AFE3C4B00221A7000F005FE60
:10788000BB1D00221A70404B1B78002B39D1BB1D49
:107890001B78002B35D1BB1D01221A703B4B98473A
:1078A00001203B4B9847031C002B0DD1274B08228E
:1078B0001A702B4B00221A702A4B1B78022293431A
:1078C000DAB2284B1A701CE0274B00221A701F4BAB
:1078D0000D221A70234B1B7810229343DAB2214BEE
:1078E0001A702C4B00221A802B4B1B78002B04D0D3
:1078F0002A4B8022D2001A8003E0294B1A88274B9A
:107900001A80184B1B781A1C0223134059D0BB1D38
:107910001B78002B55D1134B1B7802229343DAB20C
:10792000104B1A70194B9847BB1D01221A70022088
:10793000174B9847031C002B34D1044B08221A70B4
:10794000074B00221A7035E060360020AA2E002076
:10795000363000203C300020D02E0020D18E000098
:107960008E360020CC2E0020AE040020FC2E0020FD
:10797000AF040020B9860000B02E0020982F002010
:10798000D22E00207D5B00003E300020518D000093
:10799000A1680000B82E0020AA040020A604002040
:1079A0008E1E0020B44B9847B44B0A221A70B44B79
:1079B00017221A70B34B1B7802229343DAB2B14BF1
:1079C0001A70B14B1B88002B00D07EE0BB1D1B78CA
:1079D000002B00D079E00120AC4B9847031C1A1C07
:1079E000AB4B1A80AB4B9847031C1A1CAA4B1A804E
:1079F000AA4B5B7E002B19D1A94B1B78012B06D813
:107A00000220A84B9847031C1A1CA34B1A80A44BB6
:107A10001B78022B0AD1A14B9B7D5B08DBB2181CA3
:107A2000A04B9847031C1A1C9B4B1A80984B1A8832
:107A3000994B1B889A4248D99B4B9847984B1B7887
:107A4000092B05D8964B1B780133DAB2944B1A7088
:107A50000220964B9847031C002B10D1BB1D01221E
:107A60001A70874B08221A70844B00221A70854BBB
:107A70001B7802229343DAB2824B1A7025E0BB1DB9
:107A800001221A708A4B00221A707D4B0D221A7047
:107A90007C4B1B7810229343DAB27A4B1A70854BD9
:107AA00000221A80844B1A88844B1A80844B1B78DE
:107AB000002B04D0834B8022D2001A8005E0824B39
:107AC0001A88804B1A8000F0E0FC00F0DEFCBB1D41
:107AD00000221A706B4B1B781A1C022313402BD008
:107AE000BB1D1B78002B27D1664B1B7802229343CA
:107AF000DAB2644B1A706C4B9847BB1D01221A70A6
:107B000002206A4B9847031C002B06D15C4B0822CD
:107B10001A705A4B00221A7007E0574B9847574B80
:107B20000A221A70564B17221A70564B1B780222E3
:107B30009343DAB2534B1A70BB1D1B78002B52D102
:107B40000120624B9847031C1A1C614B1A80534B4F
:107B5000DA7EBB1C1A80BB1C1B88092B02D9BB1CFC
:107B600000221A80BA1CBB1C1B88191CC900CB1828
:107B7000191CC800191C031CCB181380BB1CBA1C91
:107B80001288544812181A80BB1C1A88524B1B8842
:107B900012B21BB2101C02211A1C504B9847031C36
:107BA000002B1BD0424B1B780133DAB2404B1A70CA
:107BB000BB1D01221A703E4B00221A702E4B9847B3
:107BC0002E4B0A221A702E4B10221A702D4B1B7846
:107BD00002229343DAB22B4B1A7004E0344B00229A
:107BE0001A7000F052FC00F050FCBB1D00221A700D
:107BF0003B4B1B78002B1BD1BB1D1B78002B17D1D7
:107C0000BB1D01221A700020284B9847031C002B33
:107C100006D11B4B08221A70184B00221A7007E07D
:107C2000174B0B221A70204B9847144B01221A70E5
:107C3000144B1B781A1C022313405BD0BB1D1B780E
:107C4000002B57D1BB1D01221A700E4B1B7802224C
:107C50009343DAB20B4B1A70134B98470220134B25
:107C60009847031C002B3DD1054B08221A70034B8B
:107C700000221A703EE0C046418E00008E36002081
:107C8000AA2E0020CC2E00209E2E0020A9A50000A8
:107C9000942E0020D9860000982E0020982F0020D6
:107CA000B004002061890000518D0000A16800002F
:107CB000AE040020B82E0020D42E0020AE2E0020CE
:107CC000AA040020A60400208E1E0020B986000011
:107CD000B02E002033030000D22E00207D5B000078
:107CE00034300020BA4B9847BA4B0A221A70BA4B6C
:107CF00017221A70BB1D1B78002B00D079E0B74B00
:107D00001B78002B00D074E0B54B1B781A1C102395
:107D1000134000D16DE0B24B1B7810229343DAB2CE
:107D2000AF4B1A700120AF4B9847031C9AB2AE4B71
:107D30001A80AD4B1A88AD4B1B889A4239D2AB4B97
:107D40001A88A94B1B88D31A9AB2A94B1A80A84B40
:107D50001A88A84B9A424CD9A34B1B88181CA64BD7
:107D60009847031C1A1CA54B1A80A44B1B88181C8F
:107D7000A34B9847031C1A1C3B1C1A703B1C1B7816
:107D80009AB2A04B1B88D3189AB29E4B1A809D4B77
:107D90001A889D4B9A422CD83B1C1B789AB29B4B5D
:107DA0001A809B4B9847904B1A88904B1A8000F092
:107DB0006CFB8D4B1A888D4B1B88D31A9AB28C4B57
:107DC0001A808B4B1A888B4B9A4212D9914B002206
:107DD0001A70814B0A221A70814B1B781022934330
:107DE000DAB27F4B1A708C4B00221A808B4B98476B
:107DF0004BE34AE38A4B00221A808A4B1B78002B04
:107E000030D1894B98470020884B9847031C002BA2
:107E100006D1714B08221A706E4B00221A7019E0BD
:107E20006C4B02221A706C4B1B78172B02D1694BDA
:107E30000F221A70684B0B221A707D4B1B781A1C8C
:107E40000123134006D17B4B1B7910229343DAB2F6
:107E5000784B1A71624B1B7802229343DAB2604B63
:107E60001A703DE05E4B1B781A1C0223134037D07A
:107E70005B4B1B7802229343DAB2594B1A706A4B60
:107E800098470220694B9847031C002B06D1524BA0
:107E900008221A704F4B00221A7019E04D4B022233
:107EA0001A704D4B1B78172B02D14A4B0F221A70B8
:107EB000494B0B221A705E4B1B781A1C012313408E
:107EC00006D15C4B1B7910229343DAB2594B1A71DD
:107ED000434B1B7802229343DAB2414B1A70D4E22F
:107EE000D3E2544B1B7902221343DAB2514B1A717D
:107EF000514B1B88002B08D04F4B1B881BB2012B0A
:107F00001CD14E4B1B88002B18D1BB1D01221A70AF
:107F10002F4B98472F4B0A221A702F4B13221A709F
:107F20002F4B1B7802229343DAB22D4B1A70414B30
:107F30001B7902229343DAB23E4B1A71284B1B780D
:107F40001A1C022313402BD0BB1D1B78002B27D1FA
:107F5000BB1D01221A70224B1B7802229343DAB216
:107F60001F4B1A70304B98470220304B9847031C28
:107F7000002B06D1184B08221A70164B00221A70DB
:107F80000EE0134B9847134B0A221A70124B132220
:107F90001A70134B1B7802229343DAB2104B1A70FB
:107FA000274B1B78002B59D1BB1D1B78002B55D1BB
:107FB000BB1D01221A7001201C4B9847031C002B8B
:107FC00040D1054B08221A70024B00221A703EE085
:107FD000418E00008E360020AA2E0020AB04002027
:107FE000CC2E0020B9860000B22E0020AE2E00203C
:107FF000A62E00206606000029880000A42E00207E
:108000001D640000C02E0020E7030000C42E0020E5
:10801000DD8D0000AE040020B82E0020758F00001A
:10802000D02E002034300020518D0000A1680000C7
:10803000FC2E002060360020363000203C3000202E
:108040003E300020CC4B9847CC4B12221A70CC4BC0
:108050001B7802229343DAB2C94B1A70C94B1B88B2
:10806000002B30D1BB1D1B78002B2CD10120C64B1F
:108070009847031C1A1CC54B1A80C54B9847031C14
:108080001A1CC44B1A80C14B1A88C24B1B889A42D7
:1080900019D9B94B98470220BF4B9847031C002BB6
:1080A00006D1B64B08221A70BC4B00221A7002E0AF
:1080B000B24B12221A70B24B1B7802229343DAB2EF
:1080C000AF4B1A70E1E1E0E1BB1D00221A70B44B26
:1080D0001B7902221343DAB2B14B1A71B14B1B88E0
:1080E000002B08D0AF4B1B881BB2012B1CD1AE4B11
:1080F0001B88002B18D1BB1D01221A70AB4B98476F
:10810000A64B0A221A709D4B13221A709C4B1B78A7
:1081100002229343DAB29A4B1A70A14B1B790222C6
:108120009343DAB29E4B1A71BB1D1B78002B22D1F0
:108130007B1C1A78012313401DD09D4B1B881BB25A
:10814000012B18D1BB1D01221A708D4B1B78082200
:108150009343DAB28A4B1A70944B98478F4B0A229A
:108160001A70864B13221A70854B1B780222934398
:10817000DAB2834B1A70BB1D1B78002B1FD18D4BBD
:108180001B781A1C0223134019D0BB1D01221A7040
:108190007B4B1B7808229343DAB2794B1A70834BDE
:1081A00098477E4B0A221A70744B13221A70744B34
:1081B0001B7802229343DAB2714B1A7065E164E1D5
:1081C0006F4B1B781A1C022313402BD0BB1D1B784E
:1081D000002B27D1BB1D01221A70694B1B7802228C
:1081E0009343DAB2664B1A70634B984702206A4B8E
:1081F0009847031C002B06D1604B08221A70674B6E
:1082000000221A700EE0694B9847644B0A221A70DC
:108210005A4B16221A705A4B1B7802229343DAB239
:10822000574B1A70644B1B78002B1FD1BB1D1B785A
:10823000002B1BD1BB1D01221A700120564B984701
:10824000031C002B06D14D4B08221A70534B002201
:108250001A7004E0484B9847484B15221A70484B57
:108260001B7802229343DAB2454B1A70454B1B88A8
:10827000002B57D1BB1D1B78002B53D10120424B43
:108280009847031C1A1C414B1A804C4B9847031CFF
:108290001A1C404B1A804A4B5B7E002B19D1494B6C
:1082A0001B78012B06D80220474B9847031C1A1C49
:1082B000384B1A80434B1B78022B0AD1404B9B7DD5
:1082C0005B08DBB2181C404B9847031C1A1C314B4F
:1082D0001A802E4B1A882F4B1B889A4222D9264B84
:1082E0009847384B1B78092B05D8364B1B78013340
:1082F000DAB2344B1A700220274B9847031C002B2C
:108300000DD11E4B08221A70244B00221A701C4BF0
:108310001B7802229343DAB2194B1A7002E0174B12
:1083200015221A70BB1D1B78002B17D1214B1B780F
:108330001A1C0123134011D1BB1D01221A701B4BC3
:108340009847164B0A221A700C4B16221A700C4BC7
:108350001B7802229343DAB2094B1A70BB1D1B78BB
:10836000002B07D10E4B1B7910221343DAB20C4BB2
:108370001A718AE089E0C046518D0000AA2E0020C3
:10838000CC2E00209E2E0020A9A50000942E0020B7
:10839000DD890000982E0020A16800008E360020A4
:1083A00060360020363000203C300020418E000036
:1083B0003A300020FC2E00203E300020798A000058
:1083C000982F0020B004002061890000BB1D00220E
:1083D0001A70304B1B781A1C022313402BD0BB1D84
:1083E0001B78002B27D1BB1D01221A70294B1B784B
:1083F00002229343DAB2274B1A70274B9847022088
:10840000264B9847031C002B06D1254B08221A70D7
:10841000244B00221A700EE0234B9847214B0A226E
:108420001A701F4B16221A701A4B1B7802229343A4
:10843000DAB2184B1A70BB1D1B78002B17D11B4BDF
:108440001B781A1C0123134011D1BB1D01221A7085
:10845000154B9847134B0A221A70114B16221A70AB
:108460000C4B1B7802229343DAB20A4B1A70BB1DE5
:108470001B78002B07D10E4B1B7910221343DAB265
:108480000B4B1A7101E000E0C0460A4B9847BD460D
:1084900003B090BDCC2E0020518D0000A1680000DB
:1084A000AA2E00208E360020418E0000FC2E0020D7
:1084B00060360020716A000080B500AF034B0122D6
:1084C0001A70034B64221A80BD4680BD0000002054
:1084D0003406002090B585B000AF3B1C0E3300225F
:1084E0001A8064486449654A7B1D654CA047031C9B
:1084F000002B00D1ADE07B1D1B78002B00D194E058
:10850000604B1B78002B00D08FE05A4B1A88BB1DA4
:108510001A805D4B1B881BB2BB605C4B1B78002B29
:1085200041D0BB1D00229B5E002B11DDBB68642285
:108530005343BB60BB1D00229B5EBA68D318BB606F
:10854000BA68534B101C65219847031CBB6010E0B0
:10855000BB6864225343BB60BB1D00229B5EBA68AC
:10856000D318BB60BA684A4B101C65219847031C9E
:10857000BB60484B1B78002B06D1BB1D00229B5EC5
:10858000BB60444B01221A70BB689AB23E4B1A8002
:10859000394B1B889AB2404B1A80384B1B889AB2D1
:1085A0003E4B1A8041E0BB1D00229B5E002B12DD7A
:1085B000BB68FA2292005343BB60BB1D00229B5E46
:1085C000BA68D318BB60BA68314B101C344998475D
:1085D000031CBB6010E0BB68324A5343BB60BB1D49
:1085E00000229B5EBA68D318BB60BA68284B101C87
:1085F0002D499847031CBB60264B1B78002B06D1E6
:10860000BB1D00229B5EBB60224B01221A70BB681F
:108610009AB21D4B1A80184B1B889AB21E4B1A80B7
:10862000164B1B889AB21D4B1A80124B1B889AB2AC
:108630001E4B1A80144B1A881D4B1A801B4B1B882B
:108640009AB21B4B1B889BB2D31A9AB23B1C0E33B7
:108650001A800E4B1B78002B03D03B1C0E330022DC
:108660001A80144B3A1C0E3212881A80BD4605B08F
:1086700090BDC046CE2E0020962E0020A82E0020B1
:10868000815C000034300020D22E00200000002049
:10869000D5460100B62E00209A2E0020AC2E0020D8
:1086A000E90300008813000089130000BC2E00209D
:1086B000BE2E0020B204002080B582B000AF021CA4
:1086C000FB1D1A70034B1B881BB2181CBD4602B061
:1086D00080BDC046B204002080B584B000AF3B1C12
:1086E0000A3300221A80464B9A7D464B1A70444B3F
:1086F0009A78454B1A70434B1B78002B03D0414BA3
:108700001B78092B02D93F4B05221A703E4B1B7870
:10871000002B03D03C4B1B78092B02D93A4B052286
:108720001A700120394B9847031C9AB2384B1A80B3
:10873000374B1B88002B02D1354B00221A80344B5B
:108740001B88191C304B1B781A1C131C9B009B1890
:108750005B001A1C4A432F4B101C05219847031C31
:10876000FB60FA682C4B101C0A219847031CFB6025
:10877000FA6880239B019A4202D980239B01FB6007
:10878000264BFA681A60254B1B6864225A43234B18
:108790001A60224B1B689A0B204B1A601F4B1B68F8
:1087A000FB60FB687B607B689AB21D4B1A80154B9F
:1087B0001B787A685343462253437B607B68194A8F
:1087C0009B187B607B68CD2253437B607A68124B99
:1087D000101C64219847031C7B607A680E4B101CA8
:1087E00064219847031C7B603B1C0A337A681A801B
:1087F0003B1C0A331B88181CBD4604B080BDC04614
:10880000982F0020A02E0020B72E0020B98600004F
:10881000D42E0020D546010039460100902E0020BC
:10882000C62E0020384A000080B588B000AF021C78
:10883000BB1D1A803B1C183300221A803B1C1B33C3
:1088400007221A703B1C1B33404A927D1A703F4B23
:108850009A783F4B1A703B1C1B331B78002B04D0BB
:108860003B1C1B331B78092B03D93B1C1B330522F4
:108870001A70374B1B78002B03D0354B1B78092B14
:1088800002D9334B05221A703B1C1633BA1D1288CD
:108890001A803B1C16331B88002B4FD03B1C163311
:1088A00019882B4B1B781A1C131C9B009B185B0010
:1088B0001A1C4A43274B101C05219847031CFB61D7
:1088C000FA69254B101C0A219847031CFB61FA69C1
:1088D00080239B019A4202D980239B01FB61FB69A3
:1088E0003B613B69642253433B613B699B0B3B61AA
:1088F0003B69FB61FB69FB603B1C1B331B78FA681F
:10890000534346225343FB60FB68144A9B18FB60A9
:10891000FB68CD225343FB60FA680F4B101C6421A7
:108920009847031CFB60FA680B4B101C64219847A6
:10893000031CFB603B1C1833FA681A803B1C18337D
:108940001B88181CBD4608B080BDC046982F00206B
:10895000B72E0020D546010039460100384A0000F4
:1089600080B584B000AF021CFB1D1A703B1C0E3397
:1089700000221A80164BFA1D12781A70144B1B78BD
:10898000002B03D0124B1B78092B02D9104B052268
:108990001A700F4B1B788C22920053430D4A9B1880
:1089A000BB60BB68CD225343BB60BA680A4B101C46
:1089B000FA2291009847031CBB603B1C0E33BA6837
:1089C0001A803B1C0E331B88181CBD4604B080BDAA
:1089D000A02E0020DC0500003946010080B582B0E1
:1089E00000AFBB1D00221A801E4B07221A701E4BBF
:1089F0009A7D1C4B1A701C4B9A781C4B1A70194BA1
:108A00001B78002B03D0174B1B78092B02D9154B71
:108A100005221A70154B1B78002B03D0134B1B78C3
:108A2000092B02D9114B05221A700E4B1B787822A4
:108A3000FF3253430E4A9B183B603B68CD225343A1
:108A40003B603A680B4B101CFA2291009847031CBC
:108A50003B60BB1D3A681A80BB1D1B88181CBD46B5
:108A600002B080BDA02E0020982F0020B72E00203D
:108A70006C0700003946010080B582B000AFBB1D15
:108A800000221A801F4B9A7D1F4B1A701D4B9A783B
:108A90001E4B1A701C4B1B78002B03D01A4B1B78F3
:108AA000092B02D9184B05221A70184B1B78002B82
:108AB00003D0164B1B78092B02D9144B05221A70D0
:108AC000114B1B78114A12785A43131CDB009B1A76
:108AD000DB000F4A9B183B603B68CD2253433B6051
:108AE0003A680C4B101CFA2291009847031C3B601B
:108AF000BB1D3A681A80BB1D1B88181CBD4602B0FE
:108B000080BDC046982F0020A02E0020B72E002048
:108B10006C0700003946010080B584B000AF3B1DF2
:108B2000181C0B4B98473B1D15221A603B1D002259
:108B30005A603B1D00221A723B1D0322DA723B1D54
:108B40000520191C034B9847BD4604B080BDC046A4
:108B5000C96700006D40000080B500AF054B181CD0
:108B600005210022044B984705200021034B98471C
:108B7000BD4680BD818B0000394200009542000057
:108B800080B500AF0A4B1B6804221A43084B1A60D9
:108B90001520084B9847031C1A1C074B1A70064BEC
:108BA0001B78002B01D1054B9847BD4680BDC046C0
:108BB000683600202D6700003E300020518D0000F7
:108BC00080B584B000AF3B1D181C0B4B98473B1D74
:108BD00014221A603B1D00225A603B1D00221A72AB
